:08000000B2160400000000002C
:040034003402000092
:0401080000030000F0
:10040000851F7800C4402000F48288005E90BF0001
:10041000901F78005C10F900F58280005AD0BF0070
:100420000160EF005C10B700800A7800CF0278000E
:1004300000000600851F7800C4502000F482880068
:100440005E90BF00901F78005C10F900F58280007C
:100450005AD0BF000160EF005C10B700800A78003E
:10046000CF027800000006004200F8003600F800D5
:100470005400F800801F7800200020000C000900C4
:10048000B01F780010C0B3001BF0B70010C0B3005D
:100490001CF0B700F4E72F000472880044EEA800B7
:1004A0000068A90004A02F000408880020C0B30041
:1004B0005AF0B700000202000000000020C0B300A4
:1004C0005AF0B7001A020200000000002708A80036
:1004D0002468A8002068A800C3E8A8000068A90054
:1004E000A00120000C0009004F1078004F00780098
:1004F0005400F9003600F9004200F90000400600FF
:10050000851F78006E30EF007030EF006CD0BF00B8
:100510000160EF00C402DD006480420004202D0071
:100520000400400072B0B7006D50E20024003200B9
:100530007290BF009002780000C02F00850260001A
:10054000CA2ADE0005027800F403B200A483880002
:10055000948380006200520072B0B7007290BF00B6
:1005600090027800F53FB2004628DD007430B700F5
:100570007290BF009002780000C0200085026000E9
:100580004A28DE0076B0B7009483800062005200F3
:1005900072B0B7007290BF0090027800C0FF2100D7
:1005A000050060007630B7007610F8007010F90092
:1005B0007410F8006E10F900F8020400000000004A
:1005C000948380006400520072B0B7007290BF0044
:1005D00090027800C0FF210085026000C22ADE0080
:1005E000F07F2000050060006EB0B7007030EF00B3
:1005F0006E90BF0081838000CF027800000006006B
:100600004200F8003600F8005400F800801F78001F
:10061000200020000C000900B01F780080C0B3004B
:1006200048F0B7005230EF005430EF005630EF0082
:100630005830EF0024052100D48288002005AE0048
:10064000070037004B70EF004C10A9002805AF00E1
:100650004C10A8002805A900A00504000000000017
:100660002025AE000800370010C0B3004BF0B700E3
:100670004C10A9002825AF004C10A8002825A9007F
:10068000A0050400000000002045AE00080037006F
:1006900020C0B3004BF0B7004C10A9002845AF00B4
:1006A0004C10A8002845A900A00504000000000087
:1006B0002065AE000800370030C0B3004BF0B70033
:1006C0004C10A9002865AF004C10A8002865A900AF
:1006D000A0050400000000002085AE0008003700DF
:1006E00040C0B3004BF0B7004C10A9002885AF0004
:1006F0004C10A8002885A900A005040000000000F7
:1007000020A5AE000800370050C0B3004BF0B70082
:100710004C10A90028A5AF004C10A80028A5A900DE
:10072000A00504000000000020C5AE00080037004E
:1007300060C0B3004BF0B7004C10A90028C5AF0053
:100740004C10A80028C5A900A00504000000000066
:1007500020E5AE000800370070C0B3004BF0B700D2
:100760004C10A90028E5AF004C10A80028E5A9000E
:10077000A0050400000000002105AE0008003700BD
:1007800080C0B3004BF0B7004C10A9002905AF00A2
:100790004C10A8002905A900A005040000000000D5
:1007A0002125AE000800370090C0B3004BF0B70021
:1007B0004C10A9002925AF004C10A8002925A9003C
:1007C000A0050400000000002145AE00080037002D
:1007D000A0C0B3004BF0B7004C10A9002945AF00F2
:1007E0004C10A8002945A900A00504000000000045
:1007F0002165AE0008003700B0C0B3004BF0B70071
:100800004C10A9002965AF004C10A8002965A9006B
:10081000A0050400000000002185AE00080037009C
:10082000C0C0B3004BF0B7004C10A9002985AF0041
:100830004C10A8002985A900A005040000000000B4
:1008400021A5AE0008003700D0C0B3004BF0B700C0
:100850004C10A90029A5AF004C10A80029A5A9009B
:10086000A00504000000000021C5AE00080037000C
:10087000E0C0B3004BF0B7004C10A90029C5AF0091
:100880004C10A80029C5A900A00504000000000024
:1008900021E5AE0008003700F0C0B3004BF0B70010
:1008A0004C10A90029E5AF004C10A80029E5A900CB
:1008B000A0050400000000002205AE00080037007B
:1008C00000C1B3004BF0B7004C10A9002A05AF00DF
:1008D0004C10A8002A05A900A00504000000000093
:1008E0002225AE000800370010C1B3004BF0B7005E
:1008F0004C10A9002A25AF004C10A8002A25A900F9
:10090000A0050400000000002245AE0008003700EA
:1009100020C1B3004BF0B7004C10A9002A45AF002E
:100920004C10A8002A45A900A00504000000000002
:100930002265AE000800370030C1B3004BF0B700AD
:100940004C10A9002A65AF004C10A8002A65A90028
:10095000A0050400000000002285AE00080037005A
:1009600040C1B3004BF0B7004C10A9002A85AF007E
:100970004C10A8002A85A900A00504000000000072
:1009800022A5AE000800370050C1B3004BF0B700FD
:100990004C10A9002AA5AF004C10A8002AA5A90058
:1009A000A00504000000000022C5AE0008003700CA
:1009B00060C1B3004BF0B7004C10A9002AC5AF00CE
:1009C0004C10A8002AC5A900A005040000000000E2
:1009D00022E5AE000800370070C1B3004BF0B7004D
:1009E0004C10A9002AE5AF004C10A8002AE5A90088
:1009F000A0050400000000002305AE000800370039
:100A000080C1B3004BF0B7004C10A9002B05AF001C
:100A10004C10A8002B05A900A00504000000000050
:100A20002325AE000800370090C1B3004BF0B7009B
:100A30004C10A9002B25AF004C10A8002B25A900B5
:100A4000A0050400000000002345AE0008003700A8
:100A5000A0C1B3004BF0B7004C10A9002B45AF006C
:100A60004C10A8002B45A900A005040000000000C0
:100A70002365AE0008003700B0C1B3004BF0B700EB
:100A80004C10A9002B65AF004C10A8002B65A900E5
:100A9000A0050400000000002385AE000800370018
:100AA000C0C1B3004BF0B7004C10A9002B85AF00BC
:100AB0004C10A8002B85A900A00504000000000030
:100AC00023A5AE0008003700D0C1B3004BF0B7003B
:100AD0004C10A9002BA5AF004C10A8002BA5A90015
:100AE000A00504000000000023C5AE000800370088
:100AF000E0C1B3004BF0B7004C10A9002BC5AF000C
:100B00004C10A8002BC5A900A0050400000000009F
:100B100023E5AE0008003700F0C1B3004BF0B7008A
:100B20004C10A9002BE5AF004C10A8002BE5A90044
:100B3000A0050400000000000060EF008200370004
:100B40000A25A9004BD0BF000160EF00C402DD0000
:100B500004202D000480420060B0B7006090BF0008
:100B600090027800618062004C50A9000000AF0044
:100B70004C50A8006090BF00900278006180620035
:100B80005C10A9000000AF005C10A8000483800086
:100B90006400420060B0B7006090BF00900278002F
:100BA0006FC0620048F0B7006090BF00900278000C
:100BB0000BC0BF00004078000160EF0062036000DE
:100BC0004130DE004C30A9000000AF004C30A800DE
:100BD000048380006A00420060B0B7006090BF00EC
:100BE000900278000BC0BF00004078007F4060009A
:100BF0004AF0B7000000EB005C10AF000000E80016
:100C000080427800801F78004BD0BF006CF0B700A6
:100C10004F0078006C10F800F5FF9F006C10F90091
:100C200080020200000000004EB0B7008182880000
:100C30004BD0BF000160EF00C402DD0066804200BF
:100C400004202D000400400060B0B7005E30EF00CB
:100C500048D0BF000160EF00F48280000020E10076
:100C60001D0031005E90BF005A10B4008002780071
:100C70006090BF001003780006407800804A78003A
:100C8000F4828000E102420048D0BF000160EF0022
:100C90000500E1000A003200F4828000E102420017
:100CA000050078005A10B400000378006090BF007F
:100CB000900378000FC0BF0000407800004B780020
:100CC00060B0EC00F4828000620042005EB0B700C9
:100CD00028060400000000004C70A9000AE5AF00DF
:100CE0004C70A8000AE5A900548280004822DE006A
:100CF0007024E100090031004BD0BF000160EF001B
:100D000000027800100020000400DD000080EA00EE
:100D100020A5B700A0060400000000004BD0BF00D3
:100D2000804278000B60EF00708052000002780073
:100D3000100020000400DD000080EA0022A5B700BA
:100D400010C0B30000E0B70054D0BF0001F0B700FE
:100D500055D0BF0018F0B70056D0BF0019F0B7004B
:100D600057D0BF001AF0B700F4E72F0004728800D4
:100D700044EEA90020C0B3005AF0B7000002020000
:100D80000000000020C0B3005AF0B7001A020200B1
:100D9000000000002708A8002468A8002068A80018
:100DA000C3E8A8000708A900A00120000C00090062
:100DB0004F1078004F0078005400F9003600F90019
:100DC0004200F90000400600851F780080FF2F00D8
:100DD0000164B60040D0BF007000B2000164B700EB
:100DE00000C4BF004502DE007400B2000440780079
:100DF0004050E300FAFF3A00CF02780000000600FE
:100E000084208000043CB2001400B3000440780049
:100E100010E4B70084208000F433B2000400B30073
:100E20000440780010E4B70094208000843FB200B2
:100E30000400B3000440780012E4B700942080005E
:100E4000743CB2000402B3000440780012E4B7001E
:100E500012C4A90012E4A800942080004822DE00F9
:100E6000843FB2002400B3000440780013E4B700CC
:100E700013C4A90000000600B48180006424E100CE
:100E800008003A00342080004822DE00F431B2002D
:100E90000400B3000440780007E4B700CC07040066
:100EA00000000000B48180006624E10008003A00E0
:100EB000342080004822DE00F431B2000402B30086
:100EC0000440780007E4B700CC07040000000000ED
:100ED000B48180006824E10008003A0034208000DA
:100EE0004822DE00F431B2000404B300044078006C
:100EF00007E4B700CC07040000000000B4818000C4
:100F00006C24E10008003A00342080004822DE0012
:100F1000F431B2000406B3000440780007E4B700DF
:100F2000CC07040000000000B48180007024E100C0
:100F300008003A00342080004822DE00F431B2007C
:100F40000408B3000440780007E4B700CC070400AD
:100F500000000000B48180007824E10008003A001D
:100F6000342080004822DE00F431B200040AB300CD
:100F70000440780007E4B700CC070400000000003C
:100F8000342080004822DE00F431B200040CB300AB
:100F90000440780007E4B7000000060000C2B30078
:100FA00001EBB70060C4B30002EBB700244420009B
:100FB0006458880001EBA90000C2B30000EBB70041
:100FC00004002D0024588800062BEF007400200038
:100FD0007458880001EBA800116BEF0020C2B30029
:100FE00012EBB70004442000E458880011EBA9007C
:100FF00000C2B30010EBB70004002D00A458880015
:10100000162BEF0074002000F458880011EBA800A4
:1010100000000600851F7800861F780000C4BF000E
:101020004502DE007400B2000010F800E4FF9F00EB
:101030000010F90040C0B30040F0B700E406020021
:10104000000000000004A8003C50E2002300320031
:10105000B58180008000EB003890BF00800A7800E6
:10106000B48180006200520036B0B700B5818000C4
:10107000150078007C006000800A78008002EB0098
:101080003A90BF0063036000F68188008002EB00A5
:10109000C0FF21003A10B60000037800D400200001
:1010A00005007800860078000402E8000402E900E8
:1010B000030032008100D1000080D300FBFF370025
:1010C0003E30B700B5818000150078003E10B700B3
:1010D000800A7800A808040000000000B5818000A4
:1010E000804AEB0000C0B30090429800B4818000B9
:1010F0006200520036B0B700B5818000150078005C
:101100007C006000800A7800F07F20003810B60074
:10111000800278000003EB005400200005007800F6
:10112000860078000402E8000402E90003003200AF
:101130000000D0008180D200FBFF37003EB0B70036
:10114000B5818000150078003E10B700800A780055
:101150000004A90000D0BF0040F0B700E406020080
:10116000000000004F037800CF0278000000060066
:1011700000C4BF004502DE007400B2000010F80099
:10118000E4FF9F000010F90040C0B30040F0B7003A
:10119000E4060200000000000004A80037D0BF00F1
:1011A0000160EF000080B2001F0032001080B2002A
:1011B000240032003080B2002A0032001080B200D9
:1011C0002F0032007080B200350032001080B20073
:1011D0003A0032003080B200400032001080B2008D
:1011E00045003200F080B2004B0032001080B200A7
:1011F000500032003080B200560032001080B20041
:101200005B0032007080B200610032001080B200DA
:10121000660032003080B2006C0032001080B200F4
:10122000710032007800370000FF2F002064B60004
:1012300036D0BF00F000B2002064B700040A0400FA
:1012400000000000F0F02F002064B60036D0BF0090
:10125000F000B2004400DD002064B700040A04007E
:101260000000000000FF2F002164B60036D0BF0050
:10127000F000B2002164B700040A0400000000007E
:10128000F0F02F002164B60036D0BF00F000B200AD
:101290004400DD002164B700040A040000000000DF
:1012A00000FF2F002264B60036D0BF00F000B2006D
:1012B0002264B700040A040000000000F0F02F00D0
:1012C0002264B60036D0BF00F000B2004400DD005A
:1012D0002264B700040A04000000000000FF2F0091
:1012E0002364B60036D0BF00F000B2002364B7001C
:1012F000040A040000000000F0F02F002364B60090
:1013000036D0BF00F000B2004400DD002364B70017
:10131000040A04000000000000FF2F002464B6004F
:1013200036D0BF00F000B2002464B700040A040005
:1013300000000000F0F02F002464B60036D0BF009B
:10134000F000B2004400DD002464B700040A040089
:101350000000000000FF2F002564B60036D0BF005B
:10136000F000B2002564B700040A04000000000089
:10137000F0F02F002564B60036D0BF00F000B200B8
:101380004400DD002564B700040A040000000000EA
:1013900000FF2F002664B60036D0BF00F000B20078
:1013A0002664B700040A040000000000F0F02F00DB
:1013B0002664B60036D0BF00F000B2004400DD0065
:1013C0002664B700040A04000000000000FF2F009C
:1013D0002764B60036D0BF00F000B2002764B70023
:1013E000040A040000000000F0F02F002764B6009B
:1013F00036D0BF00F000B2004400DD002764B70023
:10140000040A0400000000000004A90000D0BF008E
:1014100040F0B700E40602000000000000000600F3
:10142000851F780000C4BF004502DE007400B200D2
:101430000010F800E4FF9F000010F90040C0B30066
:1014400040F0B700E4060200000000004441200024
:10145000C4818800C5818000150078003610B7006F
:10146000800A780000D0BF0040F0B700E406020018
:1014700000000000CF0278000000060040C0B3006A
:1014800040F0B700E4060200000000000064A9007C
:101490000164A900000702000000000000C2B300C0
:1014A00036F0B7003C07020000000000CE07020043
:1014B000000000003C70EF0024432000B48188004D
:1014C0003830EF003A30EF000A0802000000000058
:1014D0003C70EF0064432000B48188003830EF0096
:1014E0003A30EF000A080200000000003C70EF00F4
:1014F00064432000B48188003830EF003A30EF00B8
:101500000A080200000000003C70EF0024442000A4
:10151000B48188003830EF003A30EF000A0802004A
:10152000000000003C70EF0064442000B48188009B
:101530003830EF003A30EF000A08020000000000E7
:101540003C70EF00A4442000B48188003830EF00E4
:101550003A30EF000A080200000000003C70EF0083
:10156000E4442000B48188003830EF003A30EF00C6
:101570000A080200000000003C70EF002445200033
:10158000B48188003830EF003A30EF000A080200DA
:10159000000000003C70EF0064452000B48188002A
:1015A0003830EF003A30EF000A0802000000000077
:1015B0003C70EF00A4452000B48188003830EF0073
:1015C0003A30EF000A080200000000003C70EF0013
:1015D000E4452000B48188003830EF003A30EF0055
:1015E0000A080200000000003C70EF0024462000C2
:1015F000B48188003830EF003A30EF000A0802006A
:10160000000000003C70EF0064462000B4818800B8
:101610003830EF003A30EF000A0802000000000006
:101620003C70EF00A4462000B48188003830EF0001
:101630003A30EF000A080200000000003C70EF00A2
:10164000E4462000B48188003830EF003A30EF00E3
:101650000A080200000000003C70EF002447200050
:10166000B48188003830EF003A30EF000A080200F9
:10167000000000003C70EF0064472000B481880047
:101680003830EF003A30EF000A0802000000000096
:101690003C70EF00A4472000B48188003830EF0090
:1016A0003A30EF000A080200000000003C70EF0032
:1016B000E4472000B48188003830EF003A30EF0072
:1016C0000A080200000000001424EF00F0C0B3007C
:1016D00036F0B7003770EF00B808020000000000D5
:1016E00014002000B4818800100A020000000000ED
:1016F0004070EF00E4060200000000000000060059
:10170000851F780080FF2F000165B60040D0BF0024
:101710007000B2000165B70000C5BF004502DE00E1
:101720007400B200044078004050E300FAFF3A0031
:10173000CF0278000000060084288000043CB2003C
:101740001400B3000440780010E5B700842880003E
:10175000F433B2000400B3000440780010E5B70091
:1017600094288000843FB2000400B3000440780055
:1017700012E5B70094288000743CB2000402B30064
:101780000440780012E5B70012C5A90012E5A800D0
:10179000942880004822DE00843FB2002400B30079
:1017A0000440780013E5B70013C5A9000000060047
:1017B000B48180006424E10008003A0034288000ED
:1017C0004822DE00F431B2000400B3000440780087
:1017D00007E5B700680C040000000000B481800039
:1017E0006624E10008003A00342880004822DE0028
:1017F000F431B2000402B3000440780007E5B700FA
:10180000680C040000000000B48180006824E1003E
:1018100008003A00342880004822DE00F431B2008B
:101820000404B3000440780007E5B700680C040026
:1018300000000000B48180006C24E10008003A0040
:10184000342880004822DE00F431B2000406B300E0
:101850000440780007E5B700680C040000000000B1
:10186000B48180007024E10008003A003428800030
:101870004822DE00F431B2000408B30004407800CE
:1018800007E5B700680C040000000000B481800088
:101890007824E10008003A00342880004822DE0065
:1018A000F431B200040AB3000440780007E5B70041
:1018B000680C040000000000342880004822DE008C
:1018C000F431B200040CB3000440780007E5B7001F
:1018D0000000060000C2B30021EBB70070C4B300E3
:1018E00022EBB700245420006459880021EBA900A2
:1018F00000C2B30020EBB70004202D00245988005B
:10190000262BEF00740020007459880021EBA800FA
:10191000316BEF0070C3B30032EBB700045420000A
:10192000E459880031EBA90000C2B30030EBB700E6
:1019300004202D00A4598800362BEF0074002000ED
:10194000F459880031EBA80000000600851F7800DC
:10195000861F780000C5BF004502DE007400B2009B
:101960000010F800E4FF9F000010F90040C0B30031
:1019700040F0B700800B0200000000000005A80046
:101980003C50E20023003200B58180008000EB0073
:101990003890BF00800A7800B48180006200520055
:1019A00036B0B700B5818000150078007C0060007B
:1019B000800A78008002EB003A90BF006303600069
:1019C000F68188008002EB00C0FF21003A10B600CB
:1019D00000037800D400200005007800860078001D
:1019E0000402E8000402E900030032008100D10093
:1019F0000080D300FBFF37003E30B700B581800088
:101A0000150078003E10B700800A7800440D0400ED
:101A100000000000B5818000804AEB0000C0B300E8
:101A200090429800B48180006200520036B0B70046
:101A3000B5818000150078007C006000800A780085
:101A4000F07F20003810B600800278000003EB0021
:101A50005400200005007800860078000402E800A9
:101A60000402E900030032000000D0008180D200AF
:101A7000FBFF37003EB0B700B5818000150078004D
:101A80003E10B700800A78000005A90000D0BF0012
:101A900040F0B700800B0200000000004F03780008
:101AA000CF0278000000060000C5BF004502DE003E
:101AB0007400B2000010F800E4FF9F000010F9006D
:101AC00040C0B30040F0B700800B020000000000EF
:101AD0000005A80037D0BF000160EF000080B20011
:101AE0001F0032001080B200240032003080B200AB
:101AF0002A0032001080B2002F0032007080B20045
:101B0000350032001080B2003A0032003080B2005E
:101B1000400032001080B20045003200F080B20078
:101B20004B0032001080B200500032003080B20012
:101B3000560032001080B2005B0032007080B200AC
:101B4000610032001080B200660032003080B200C6
:101B50006C0032001080B200710032007800370053
:101B600000FF2F002065B60036D0BF00F000B200A5
:101B70002065B700A00E040000000000F0F02F0068
:101B80002065B60036D0BF00F000B2004400DD0092
:101B90002065B700A00E04000000000000FF2F0029
:101BA0002165B60036D0BF00F000B2002165B70055
:101BB000A00E040000000000F0F02F002165B60028
:101BC00036D0BF00F000B2004400DD002165B70050
:101BD000A00E04000000000000FF2F002265B600E8
:101BE00036D0BF00F000B2002265B700A00E04009E
:101BF00000000000F0F02F002265B60036D0BF00D4
:101C0000F000B2004400DD002265B700A00E040021
:101C10000000000000FF2F002365B60036D0BF0093
:101C2000F000B2002365B700A00E04000000000021
:101C3000F0F02F002365B60036D0BF00F000B200F0
:101C40004400DD002365B700A00E04000000000082
:101C500000FF2F002465B60036D0BF00F000B200B0
:101C60002465B700A00E040000000000F0F02F0073
:101C70002465B60036D0BF00F000B2004400DD009D
:101C80002465B700A00E04000000000000FF2F0034
:101C90002565B60036D0BF00F000B2002565B7005C
:101CA000A00E040000000000F0F02F002565B60033
:101CB00036D0BF00F000B2004400DD002565B7005B
:101CC000A00E04000000000000FF2F002665B600F3
:101CD00036D0BF00F000B2002665B700A00E0400A9
:101CE00000000000F0F02F002665B60036D0BF00DF
:101CF000F000B2004400DD002665B700A00E04002D
:101D00000000000000FF2F002765B60036D0BF009E
:101D1000F000B2002765B700A00E0400000000002C
:101D2000F0F02F002765B60036D0BF00F000B200FB
:101D30004400DD002765B700A00E0400000000008D
:101D40000005A90000D0BF0040F0B700800B0200E2
:101D50000000000000000600851F780000C5BF00DD
:101D60004502DE007400B2000010F800E4FF9F009E
:101D70000010F90040C0B30040F0B700800B020033
:101D80000000000044512000C4818800C58180000B
:101D9000150078003610B700800A780000D0BF0028
:101DA00040F0B700800B020000000000CF02780076
:101DB0000000060040C0B30040F0B700800B0200F6
:101DC000000000000065A9000165A9009C0B02004D
:101DD0000000000000C2B30036F0B700D80B0200CC
:101DE000000000006A0C0200000000003C70EF00E0
:101DF00024532000B48188003830EF003A30EF00DF
:101E0000A60C0200000000003C70EF0064532000AC
:101E1000B48188003830EF003A30EF00A60C0200A1
:101E2000000000003C70EF00A4532000B481880043
:101E30003830EF003A30EF00A60C0200000000003E
:101E40003C70EF0024542000B48188003830EF004B
:101E50003A30EF00A60C0200000000003C70EF00DA
:101E600064542000B48188003830EF003A30EF002D
:101E7000A60C0200000000003C70EF00A4542000FB
:101E8000B48188003830EF003A30EF00A60C020031
:101E9000000000003C70EF00E4542000B481880092
:101EA0003830EF003A30EF00A60C020000000000CE
:101EB0003C70EF0024552000B48188003830EF00DA
:101EC0003A30EF00A60C0200000000003C70EF006A
:101ED00064552000B48188003830EF003A30EF00BC
:101EE000A60C0200000000003C70EF00A45520008A
:101EF000B48188003830EF003A30EF00A60C0200C1
:101F0000000000003C70EF00E4552000B481880020
:101F10003830EF003A30EF00A60C0200000000005D
:101F20003C70EF0024562000B48188003830EF0068
:101F30003A30EF00A60C0200000000003C70EF00F9
:101F400064562000B48188003830EF003A30EF004A
:101F5000A60C0200000000003C70EF00A456200018
:101F6000B48188003830EF003A30EF00A60C020050
:101F7000000000003C70EF00E4562000B4818800AF
:101F80003830EF003A30EF00A60C020000000000ED
:101F90003C70EF0024572000B48188003830EF00F7
:101FA0003A30EF00A60C0200000000003C70EF0089
:101FB00064572000B48188003830EF003A30EF00D9
:101FC000A60C0200000000003C70EF00A4572000A7
:101FD000B48188003830EF003A30EF00A60C0200E0
:101FE000000000003C70EF00E4572000B48188003E
:101FF0003830EF003A30EF00A60C0200000000007D
:102000001425EF00F0C0B30036F0B7003770EF00D2
:10201000540D02000000000014002000B48188006C
:10202000AC0E0200000000004070EF00800B0200C8
:10203000000000000000060036D0BF000160EF0085
:102040000080B2000F0032001080B2001000320099
:102050003080B200110032001080B2001200320055
:102060007080B200130032001080B2001400320001
:102070003080B200150032001080B200160032002D
:102080001800370030E4A8007210040000000000BF
:1020900031E4A800721004000000000032E4A8003F
:1020A000721004000000000033E4A8007210040065
:1020B0000000000034E4A8007210040000000000DA
:1020C00035E4A800721004000000000036E4A80007
:1020D000721004000000000037E4A8007210040031
:1020E0000000000037E4AE00070037003420800015
:1020F000043EB2008400B3000440780006E4B70058
:10210000FA1004000000000036E4AE0007003700BB
:1021100034208000043EB2007400B3000440780014
:1021200006E4B700FA1004000000000035E4AE0039
:102130000700370034208000043EB2006400B30082
:102140000440780006E4B700FA1004000000000024
:1021500034E4AE000700370034208000043EB200B3
:102160005400B3000440780006E4B700FA100400FD
:102170000000000033E4AE00070037003420800088
:10218000043EB2004400B3000440780006E4B70007
:10219000FA1004000000000032E4AE00070037002F
:1021A00034208000043EB2003400B30004407800C4
:1021B00006E4B700FA1004000000000031E4AE00AD
:1021C0000700370034208000043EB2002400B30032
:1021D0000440780006E4B700FA1004000000000094
:1021E00034208000043EB2001400B30004407800A4
:1021F00006E4B7000000060036D0BF000160EF0023
:102200000080B2000F0032001080B20010003200D7
:102210003080B200110032001080B2001200320093
:102220007080B200130032001080B200140032003F
:102230003080B200150032001080B200160032006B
:102240001800370030E5A80052110400000000001B
:1022500031E5A800521104000000000032E5A8009A
:10226000521104000000000033E5A80052110400E0
:102270000000000034E5A800521104000000000036
:1022800035E5A800521104000000000036E5A80062
:10229000521104000000000037E5A80052110400AC
:1022A0000000000037E5AE0007003700342880004A
:1022B000043EB2008400B3000440780006E5B70095
:1022C000DA1104000000000036E5AE000700370018
:1022D00034288000043EB2007400B300044078004B
:1022E00006E5B700DA1104000000000035E5AE0095
:1022F0000700370034288000043EB2006400B300B9
:102300000440780006E5B700DA1104000000000080
:1023100034E5AE000700370034288000043EB200E8
:102320005400B3000440780006E5B700DA11040059
:102330000000000033E5AE000700370034288000BD
:10234000043EB2004400B3000440780006E5B70044
:10235000DA1104000000000032E5AE00070037008B
:1023600034288000043EB2003400B30004407800FA
:1023700006E5B700DA1104000000000031E5AE0008
:102380000700370034288000043EB2002400B30068
:102390000440780006E5B700DA11040000000000F0
:1023A00034288000043EB2001400B30004407800DA
:1023B00006E5B7000000060036D0BF000160EF0060
:1023C0000080B2000F0032001080B2001000320016
:1023D0003080B200110032001080B20012003200D2
:1023E0007080B200130032001080B200140032007E
:1023F0003080B200150032001080B20016003200AA
:102400001800370030E5A900321204000000000077
:1024100031E5A900321204000000000032E5A900F5
:10242000321204000000000033E5A900321204005B
:102430000000000034E5A900321204000000000092
:1024400035E5A900321204000000000036E5A900BD
:10245000321204000000000037E5A9003212040027
:102460000000000037E5AE00070037003428800088
:10247000043EB2008400B3000440780006E5B700D3
:10248000CC1204000000000036E5AE000700370063
:1024900034288000043EB2007400B3000440780089
:1024A00006E5B700CC1204000000000035E5AE00E0
:1024B0000700370034288000043EB2006400B300F7
:1024C0000440780006E5B700CC12040000000000CC
:1024D00034E5AE000700370034288000043EB20027
:1024E0005400B3000440780006E5B700CC120400A5
:1024F0000000000033E5AE000700370034288000FC
:10250000043EB2004400B3000440780006E5B70082
:10251000CC1204000000000032E5AE0007003700D6
:1025200034288000043EB2003400B3000440780038
:1025300006E5B700CC1204000000000031E5AE0053
:102540000700370034288000043EB2002400B300A6
:102550000440780006E5B700CC120400000000003B
:1025600030E5AE000700370034288000043EB2009A
:102570001400B3000440780006E5B700CC12040054
:102580000000000034288000043EB2000400B300C4
:102590000440780006E5B70000000600F4E72F00CD
:1025A0000472880044EEA90004C02C0084708800E6
:1025B00084002000047188000E2EEF0004E02C003F
:1025C000F47088002E2EEF003E2EEF00F40720005E
:1025D000747288005E2EEF006E2EEF002223EF0053
:1025E0006223EF000400280024198800040E28004C
:1025F000041988003E0A020000000000DA0E020002
:10260000000000003670EF001C1002000000000007
:1026100010C0B30036F0B700FC100200000000004C
:1026200090C0B30036F0B700DC11020000000000DB
:1026300040C0B30040F0B700E40602000000000014
:102640004070EF00E4060200000000000421EF00EB
:1026500002A1EF00040228002408880004A02F0033
:1026600004088800C208F800C3E8A90020C0B3002D
:102670005AF0B7000002020000000000C208F90092
:10268000C208F800C3E8A90020C0B3005AF0B700A0
:102690001A02020000000000C208F9002068A80029
:1026A0002708A8002468A800C3E8A80000000600C6
:1026B0003610F8002803F90062000900000000004D
:1026C0002003A9002023A8002003AE00FEFF37004E
:1026D0000083BF004200DE0000000600851F780076
:1026E0003C30EF00D4818000C3818000830252001F
:1026F000F40F20000428B80080027800B481800024
:10270000C381800003005200050278008001780038
:10271000110009000382D8003CB0B7003A90BF0016
:10272000C48180000020E100010039003C30EF004E
:10273000E4818000F30F20000418E10002003E0055
:10274000F40F2000E48188003CD0BF0000E0B70017
:10275000CF027800000006003A30EF003C30EF0076
:10276000C4818000B3818000030052003AB0B700FA
:10277000D4818000A3F62F000418E1000600340085
:10278000F40F2000D3818000048041003AB0B700EC
:10279000DA13040000000000D481800063092000E7
:1027A0000418E10003003D00D4818000F40FB10063
:1027B000D4818800000820003A10B4003CB0B70073
:1027C000E48180006020E10001003D003C30EF002A
:1027D000E4818000F30F20000418E10002003D00B6
:1027E000F40F2000E48188003CD0BF0000E0B70077
:1027F00000000600851F7800861F7800871F78007C
:10280000881F780030E4AE00070037003064AF0066
:10281000050037003044AF00030037004430EF00BC
:10282000A41404000000000031E4AE0008003700EA
:102830003164AF00060037003144AF0004003700B8
:102840001400200024828800A4140400000000006A
:1028500032E4AE00080037003264AF0006003700F3
:102860003244AF0004003700240020002482880096
:10287000A41404000000000033E4AE000800370098
:102880003364AF00060037003344AF000400370064
:102890003400200024828800A414040000000000FA
:1028A00034E4AE00080037003464AF00060037009F
:1028B0003444AF0004003700440020002482880024
:1028C000A41404000000000035E4AE000800370046
:1028D0003564AF00060037003544AF000400370010
:1028E0005400200024828800A4140400000000008A
:1028F00036E4AE00080037003664AF00060037004B
:102900003644AF00040037006400200024828800B1
:10291000A41404000000000037E4AE0008003700F3
:102920003764AF00060037003744AF0004003700BB
:102930007400200024828800A41404000000000019
:102940000060EF00020137003E50E2004B00320011
:102950008002EB00C0FF21003810B60000037800B1
:1029600086027800060020003FD0BF008043780038
:102970000F60EF00C13BDD003ED0BF000160EF0003
:102980000080730080827200F0FF2100050060006B
:1029900046B0B70025828000C42ADD0004002D0067
:1029A00004834200348280000403980000FC2F005E
:1029B0003610B600800278003890BF0063036000D4
:1029C000640020000402E8000402E9000300320071
:1029D0000603D1008582D300FBFF3700F0FF200003
:1029E0000500600046B0B70025828000C42ADD00E3
:1029F0006280420004002D00840240003482800086
:102A000084029800B5818000F503B2000003EB005A
:102A1000A40020000402E8000402E90003003200E0
:102A20008502D0000683D200FBFF37003FD0BF00F5
:102A3000804378000F60EF00C93BDD003CD0BF0051
:102A40000160EF000080730080827200F0F12F00BF
:102A50000500600046B0B70025828000C42ADD0072
:102A60006480420004002D00840240003482800013
:102A700084029800A815040000000000F07F2000E8
:102A80003610B600800278000003EB00240020001E
:102A90000402E8000402E900030032008502D000CD
:102AA0000683D200FBFF37003FD0BF008043780091
:102AB0000F60EF00C13BDD003ED0BF000160EF00C2
:102AC0000080730080827200F0FF2100050060002A
:102AD00046B0B70025828000C42ADD0004002D0026
:102AE0000483420034828000040398002582800021
:102AF000C42ADD006280420004002D0084024000F0
:102B0000804AEB0000C0B300904298003FD0BF0065
:102B1000804278000B60EF00C92ADD003CD0BF0086
:102B20000160EF0080827200F0F12F00050060006C
:102B300046B0B70025828000C42ADD0064804200D0
:102B400004002D008402400034828000840298003A
:102B500025828000C42ADD006680420004002D002A
:102B60000400400040B0B7004230EF003CD0BF004E
:102B70000160EF00148280000020E100200031009D
:102B800014828000E10242003CD0BF000160EF00EF
:102B90000500E10009003A00058280004290BF0074
:102BA0003A10B40010437800864A780000C0B300A1
:102BB00090429800F4150400000000000582800097
:102BC0001482800061034200060078003A10B400CD
:102BD000904378004290BF003A10B400104478004F
:102BE000884A78009742980040B0EC001482800038
:102BF0006200420042B0B700B615040000000000B9
:102C00004490BF000080B2000F0032001080B2007C
:102C1000150032003080B2001B0032001080B2007C
:102C2000210032007080B200270032001080B20014
:102C30002D0032003080B200330032001080B2002C
:102C40003900320040003700C0FF2F003064B6006A
:102C50003DD0BF003000B2003064B7003064A8003F
:102C6000A416040000000000C0FF2F003164B6006D
:102C70003DD0BF003000B2003164B7003164A8001D
:102C8000A416040000000000C0FF2F003264B6004C
:102C90003DD0BF003000B2003264B7003264A800FB
:102CA000A416040000000000C0FF2F003364B6002B
:102CB0003DD0BF003000B2003364B7003364A800D9
:102CC000A416040000000000C0FF2F003464B6000A
:102CD0003DD0BF003000B2003464B7003464A800B7
:102CE000A416040000000000C0FF2F003564B600E9
:102CF0003DD0BF003000B2003564B7003564A80095
:102D0000A416040000000000C0FF2F003664B600C7
:102D10003DD0BF003000B2003664B7003664A80072
:102D2000A416040000000000C0FF2F003764B600A6
:102D30003DD0BF003000B2003764B7003764A80050
:102D4000A41604000000000010C0B30000E0B700AB
:102D50004F047800CF0378004F037800CF0278004B
:102D6000000006000FF82700F0FF270020A0B700A2
:102D7000000000004044240000428800C1E8A80090
:102D80000600FC002174200062042000730520006E
:102D9000824878008348780042C7A900D0642100A7
:102DA000D4A6B700E000200084A6B70000F0200001
:102DB00098A6B7000600FC002174200062042000E1
:102DC00073052000824878008348780042C7A80035
:102DD0000230EF000430EF000630EF000830EF0063
:102DE0000A30EF000C30EF000E30EF001030EF0033
:102DF0001230EF001430EF001630EF000170EF00DA
:102E00001870EF001970EF001A70EF001B70EF00E0
:102E10001C70EF001E30EF000E2EEF001E2EEF0094
:102E20002E2EEF003E2EEF004E2EEF006E2EEF0006
:102E30003070EF003170EF003270EF003370EF0050
:102E40003470EF003570EF00CE1202000000000079
:102E5000F4E72F000472880044EEA900F4E72F0085
:102E600004728800450EA8001CD0BF000000FB00C3
:102E70006100E10062003A001C70EF00F4002000E5
:102E8000B481880058130200000000000000FB001D
:102E900008B0B700A4002000B481880058130200D5
:102EA000000000000000FB000AB0B700E4002000B2
:102EB000B481880058130200000000000000FB00ED
:102EC0000CB0B700B4002000B48188005813020091
:102ED000000000000000FB000EB0B70084012000DD
:102EE000B481880058130200000000000000FB00BD
:102EF00002B0B70084092000B481880034022000A9
:102F0000C48188000210F8003A10F9006E13020024
:102F10000000000031F0B70094012000B481880067
:102F2000581302000000000004F0B7000570EF0025
:102F30000430D5000430D500F40F2000B48188009F
:102F40003830EF000410F8003A10F9006E13020058
:102F50000000000032F0B700D4012000B4818800E6
:102F600058130200000000000000FB0010B0B70082
:102F7000D4002000B48188001210F8003810F90045
:102F8000AC1302000000000033F0B700E4012000A1
:102F9000B481880058130200000000000000FB000C
:102FA00012B0B700F4002000B48188001210F800BD
:102FB0003810F900AC1302000000000034F0B70034
:102FC000E4012000B48188005813020000000000D2
:102FD00006F0B7000770EF000630D5000630D500C8
:102FE000F40F2000B48188003830EF000610F8009C
:102FF0003A10F9006E1302000000000035F0B7002F
:103000001BD0BF000000FB006100E10041003A005E
:103010001B70EF0001D0BF0020F0B70018D0BF0038
:1030200021F0B70019D0BF0022F0B7001AD0BF00BE
:1030300023F0B70002D0BF0024F0B70031D0BF00AA
:1030400025F0B70004D0BF0026F0B70032D0BF0093
:1030500027F0B70010D0BF0028F0B70033D0BF0072
:1030600029F0B70012D0BF002AF0B70034D0BF005B
:103070002BF0B70008D0BF002CF0B7000AD0BF007B
:103080002DF0B7000CD0BF002EF0B7000ED0BF005F
:103090002FF0B70080C0B3003CF0B70020C0B300F1
:1030A0003DF0B7003E70EF003F70EF0004182000C5
:1030B000B48188003830EF0004022100D4818800F8
:1030C000FA130200000000000E27090000000000B3
:1030D00080C0B3003CF0B70020C0B3003DF0B700A3
:1030E0003E70EF003F70EF0014182000B48188009C
:1030F0003830EF0084022100D4818800FA130200E6
:10310000000000001E0E090000000000FF3F090043
:103110000000000028170400000000000040FE002E
:0200000401F009
:10000800030000FF820000FF220000FF7F0000FFC6
:0C001800370000FFD70000FF030000FFCE
:00000001FF
;PIC24EP512GU810
;CRC=6C35  CREATED="14-abr.-26 22:58"
